:10000000202F0020ED470000F9450000C9470000FF
:10001000C9470000C9470000C9470000C9470000A0
:10002000000000000000000000000000C9470000C0
:10003000C947000000000000C9470000C947000090
:1000400045410000D54000006D360000D536000067
:10005000992E0000112E0000252F0000612F0000B6
:10006000992E0000112E0000252F0000612F0000A6
:1000700075390000A14300000000000000000000EE
:100080000000000000000000000000000000000070
:100090000000000000000000000000000000000060
:1000A0000000000000000000000000000000000050
:1000B0000000000000000000000000000000000040
:10050000660000000108010010B5054C237833B9DE
:10051000044B13B1044800E000BF0123237010BD59
:10052000800A002000000000C061000008B5034BF5
:100530001BB10349034800E000BF08BD00000000F4
:10054000840A0020C06100002DE9F843D0E902953B
:10055000A9EB050890450446164609D94068284489
:1005600004F088FBBFF35F8F3544E560BDE8F88396
:100570000F464068424628443544A5EB090504F07F
:1005800079FB2A46606807EB080104F073FBBFF3B0
:100590005F8FE560BDE8F8832DE9F8434FF000096F
:1005A000064617468846D0E9021433690D1B9C4263
:1005B00003F1FF3224BF03F1FF325218BD4228BFBE
:1005C0003D46121B954228BF1546706841462A4693
:1005D000204404F04FFBB1682C44A14208BF002422
:1005E000A944A8447F1BBFF35F8FF460002FDCD1C8
:1005F0004846BDE8F88300BFF8B5174CA822002193
:10060000204604F044FB4FF48066002303211020B1
:10061000124A134F134D21616161A261E7612662A5
:10062000A3626362E36222666566A0662367E3668F
:100630006367BFF35F8F0C4B53219C46A3F10F0000
:1006400001E013F90119ACEB03028342A154F8D184
:10065000BFF35F8FF8BD00BF9C0A0020A0560000CA
:10066000540B0020440B0020BA56000038B5204B34
:1006700000EB400403EBC40EDEF82C40013000EB2D
:100680004000012C8C46154603EBC00005D0022C1F
:1006900029D0ACB10024204638BDDEF82830DEF881
:1006A000242093429CBFDEF820401B19013B9C1A7A
:1006B000AC4228BF2C462246FFF746FF204638BDF5
:1006C000DEF82830DEF8242093429CBFDEF82010AC
:1006D0005B18013B9B1A9D42DDD82A466146FFF715
:1006E00033FF2C46D7E7BDE83840FFF755BF00BFC2
:1006F0009C0A002030B50C4B0C461B7883B063B1CC
:10070000EFF311854FF0200181F311882146FFF7A7
:10071000ADFF85F3118803B030BDCDE90002FFF7CE
:100720006BFFDDE90002EBE79C0A0020D0E9012322
:1007300010B50446581C904207D82268D15403468D
:10074000E16862680131C4E902019A4200D010BD3B
:1007500021682069FFF7CEFFA368984215BF4FF0CC
:10076000FF330023E360A36010BD00BF2DE9F84F05
:1007700091420F46DDE90A94154683461E4660D332
:100780000B464FF00108B3FBF5F39D4208F1010859
:10079000F9D9B04538BFB04614F0010A02D1B9F119
:1007A000000F35D1DBF80C30002B2FDB012402E0E9
:1007B000013E05FB04F4012EFAD8B7FBF4F39D4289
:1007C000F7D9214E06E0AC42B4FBF5F30CD31C463E
:1007D000B7FBF3F3F156584604FB1377FFF7A6FF78
:1007E000DBF80C30002BEEDABAF1000F0ED0B9F1C5
:1007F000000F0BD0C84509F1FF3907D22021584618
:10080000FFF794FFDBF80C30002BF0DABDE8F88F2F
:10081000A30711D420240CE021465846FFF786FF99
:10082000DBF80C3009F1FF39002BEFDBB9F1000FD9
:10083000BCD0C845F0D3B5E7002E0CBF302420242F
:10084000F7E74FF00108A4E7C05600002DE9F04F8C
:10085000002340249BB00DF1280A80460D46174620
:10086000CDE905A4CDE90733DFF8A492099005E0AE
:1008700005A8FFF75BFF0898002866DB15F9011B48
:10088000002965D02529F3D1294600260D4611F906
:10089000013BA3F123020D2A08D8DFE802F0480744
:1008A00007070707070745074B070742A3F1300271
:1008B000D2B2092A4FF000040BD804EB840403EBF6
:1008C000440415F9013F303CA3F13002D2B2092AA9
:1008D000F3D92E2B00F0CB80002395F9001001E016
:1008E00015F9011F21F00402682AF9D0252924D026
:1008F0005839CAB2202A23D8202921D8DFE801F0AC
:100900003320202020202020202020AD6020202007
:10091000202020202020202052202042203F202064
:10092000330046F00206B1E746F00406AEE746F0B3
:100930000806ABE746F00106A8E705A8FFF7F6FEB4
:100940000898002805F1010598DA1BB0BDE8F08F82
:1009500008980028F9DD079A002A40F0A08010448A
:100960001BB0BDE8F08F1022386801680430CDE973
:100970000046386005A8FFF7F9FE0898E1E70A226B
:100980003868F2E73B681A1D3A601C6805E005A864
:10099000FFF7CCFE08980028D3DB14F9011B0029CF
:1009A000F5D1CDE70823002438681022016804300F
:1009B000386005A8CDE90034FFF7D8FE0898C0E7F5
:1009C0003A680120D2F800B004323A608BEAEB7248
:1009D000A2EBEB72092A08DD1146A9FB02C26329CA
:1009E00000F101004FEAD202F6DC9842024638BF1D
:1009F0001A46039264B3BBF1000F58DB710756D45B
:100A0000B20700D523B3F00722D40CB3039AA24255
:100A10001ED205A820210293FFF788FE089A013C08
:100A2000002A10468DDB029B002CEFD1BBF1000F9A
:100A30003FDB71074BD406F0030102294ED005A815
:100A400059460A22CDE90046FFF790FE089878E75C
:100A5000089A002A1046E9DA73E73B6805A81A1DD0
:100A600093F900103A60FFF761FE089869E795F97D
:100A700001100135A1F13003DBB2092B4FF0000367
:100A80003FF630AF03EB830301EB430315F9011F7E
:100A9000303BA1F13002D2B2092AF3D922E7514604
:100AA0004046FFF727FEDDE90720104458E7013CE8
:100AB000A6E72D2105A80293FFF738FE029BCBF194
:100AC000000B089A002A1046FFF63BAFB3E72B2134
:100AD00005A80293FFF72AFE029BF2E7002BAED196
:100AE000A4B10399A1420CD205A830210293FFF7CB
:100AF0001DFE089A013C002A1046FFF622AF029B19
:100B0000EEE7002A1046FFF61CAF98E7002496E7B0
:100B1000CDCCCCCC0EB400B582B003AB53F8041BE3
:100B200001AA0193FFF792FE02B05DF804EB03B057
:100B3000704700BFB9B100234FF6FF7C10B40B4CD7
:100B4000C25C013382EA0C02D2B234F812201BB22A
:100B50008B4282EA1C2CF3DB6FEA0C0040BA80B2B5
:100B60005DF8044B70470846704700BFB807002087
:100B700038B50388B3F5807F1DD1037A0446AA2BCC
:100B800006D0CC2B04D0E62B0CBF0220012038BDB0
:100B9000A379E57904F1090005EB0325ADB2E91E5F
:100BA00089B2FFF7C7FF2544AA79EB7903EB02234B
:100BB0009BB2984201D0002038BD207A38BD00BFDA
:100BC00070B50C460646104D01F05CFB21463046E0
:100BD00001F01CFFAC460D4B0FCBACE807003146D3
:100BE00022460D26ACF8003005F10F0004F042F863
:100BF0000A2304F110022C44E6732946AB5404483E
:100C0000BDE8704001F022BF540F0020D056000014
:100C10004418002030B503460C46ADF5037D22464E
:100C200019466846230A8DF806308DF8074004F00F
:100C300021F82146684601F0E9FE4FF47A71134D20
:100C4000084603F09DFCAC46114B0FCBACE8070007
:100C500069462246ACF8003005F10F0004F00AF8AE
:100C60004FF00D0C0A2304F10F022C4484F80EC03F
:100C700029460848AB5401F0E9FE4FF47A71084662
:100C800003F07EFC01200DF5037D30BD540F0020E4
:100C9000E056000044180020F0B54FF480730C2299
:100CA0004FF0110E4FF0000C0120204989B0D1F80F
:100CB0000150D1F805400DF11B060DF10F07ADF8FD
:100CC0000430ADF80630ADF808308DF80BE08DF843
:100CD0000AC08DF80D008DF80C208DF80E202846E6
:100CE00021460A22002303F0E7FD944628462146C8
:100CF0000A220CF13004002306F8014D03F0DCFD5C
:100D0000BE4205460C46EAD10E210DF10D00FFF75B
:100D100011FF0246130203EB1223192101A8ADF8BB
:100D20001B30FFF777FF012009B0F0BD98140020B9
:100D30004FF48073F0B512240C2500200A21012203
:100D400089B0ADF80430ADF80630ADF808301E4B70
:100D50008DF80E508DF80B40D3F80150D3F80540B4
:100D60008DF80A008DF80C108DF80D200DF11B0682
:100D70000DF10F07284621460A22002303F09CFDAF
:100D80009446284621460A220CF13004002306F836
:100D9000014D03F091FDBE4205460C46EAD1002309
:100DA0000F210DF10D008DF81B30FFF7C3FE024639
:100DB000130203EB12231A2101A8ADF81C30FFF730
:100DC00029FF012009B0F0BD9814002001B310B52F
:100DD000044643F6655C0020013904F1FF3E14FA35
:100DE00081F408221EF8013F83EA102111F0800FE0
:100DF00002F1FF328CEA40010ABF400088B280B2A3
:100E00005B0012F0FF02DBB2EED17445E9D110BDF8
:100E10000846704710B5094C67222046084903F080
:100E200029FF65212046FFF7D1FFB4F8653080B275
:100E3000181AB0FA80F0400910BD00BF98140020C5
:100E4000400000082DE9F0470026A2B00446914674
:100E500088467C22314603A84FF000658DF8076074
:100E6000029603F014FF402313FB04550122294688
:100E7000644814FB03F403F0BFF8002875D1624BFB
:100E80001E78002E67D161490020FFF743FE402203
:100E900029465C480DF1070302F0B8FF0746002819
:100EA0006ED19DF80770002F51D0012F00F098806F
:100EB000022F7FD02A464B464146524803F016F88F
:100EC0000746002866D12EB1514A1378002BFCD07A
:100ED000002313704F490020FFF71CFE04F100614E
:100EE0004A4602A803F0C6FE4022414602A803F08B
:100EF000B1FE0446002857D14749FFF70BFE2046B4
:100F00004649FFF707FE20469DF8082044490DF1A9
:100F10000904FFF7FFFDA146414EDFF8408122ADF5
:100F2000A94510D019F8012B31460020FFF7F2FD3A
:100F3000C4F101034B4413F00700F1D14146FFF720
:100F4000E9FDA945EED1384622B0BDE8F087354924
:100F5000FFF7E0FDAEE73449FFF7DCFD334B1878CF
:100F60000028FCD000221A708DE70746304B30462F
:100F7000304A3149FFF7CEFD384622B0BDE8F08750
:100F80002E4B2C4A2C490020FFF7C4FD384622B0D6
:100F9000BDE8F0872A4B274A27490020FFF7BAFD12
:100FA000384622B0BDE8F08700202649FFF7B2FDA1
:100FB0001827C8E7DFF8A8A0234A01E013781BB977
:100FC0009AF80030002BF9D09AF8003003F0FF07B0
:100FD00063B938461D49FFF79DFD1B4B1F7069E73C
:100FE0001B4B144A1449FFF795FDACE7194B002041
:100FF000194A1149FFF78EFD002303278AF80030B4
:10100000A1E700BFD8180020485F00003857000053
:1010100057110020245800004C5800008058000050
:1010200094580000E4580000D058000055110020EA
:10103000F0560000DC5900001C5700004C5700001F
:10104000F8570000985800005411002094590000EF
:10105000005900004C590000C4590000045C000015
:101060005611002030B51C4C91B065212046FFF789
:10107000ADFEA446EE46A4F8650004F140057446B2
:10108000DCF80000DCF80410DCF80820DCF80C3098
:101090000CF1100CAC450FC40EF1100EEFD1402234
:1010A00069460120FFF7CEFEA0B9EE460B4C04F1D5
:1010B0004005F44620686168A268E3681034AC42D9
:1010C000ACE80F000EF1100EF3D140226946022069
:1010D000FFF7B8FE11B030BD98140020D8140020DE
:1010E00008B54FF000631B68592B03D0084A002055
:1010F000136008BD0020064904220860FFF7A2FE25
:101100001B220449044801F0A1FC002008BD00BFD7
:1011100004150020A8590000441800200378032B70
:101120000AD0022B04D05BB90122084B1A70704719
:101130000122074B1A7070470122064B1A70704744
:10114000012B04BF044A1370704700BF55110020E3
:10115000541100205611002057110020014B18781F
:10116000704700BFB80900200422014B1A70704775
:10117000B809002030B4C82500230A20044A054CD1
:1011800015600549054A23700880137030BC70470C
:101190000C15002058120020BA0900201415002058
:1011A00010B5084C084BA4460FCBACE807000D2146
:1011B0008CF80030204601F029FCC822034B1A604D
:1011C00010BD00BF58110020B05D00000C150020BC
:1011D00070B5194C194DA4460FCDACE80F002B6823
:1011E000174E1A0CACF800300CF8022F604631464E
:1011F00003F085FD204603F08AFD2C2203460130D2
:1012000006F124012044E25403F079FD204603F066
:101210007EFD01460B4B18689A799D8860506318D3
:1012200006319A719D80204689B201F0EFFB4FF4A0
:101230009672054B1A6070BD58110020905D000039
:10124000BF140020885D00000C15002070B51A4CFA
:101250001A4DA4460FCDACE80F00194E2B6860461E
:101260008CF80030314603F04AFD204603F04FFD74
:101270002C2203460130A6F110012044E25403F071
:101280003EFD204603F043FD03460E4D07CDB5F865
:1012900000C0AE78E518E050696003F10E01AA6065
:1012A000204689B2A5F80CC0AE7301F0AFFBC8228E
:1012B000054B1A6070BD00BF58110020B05C0000E3
:1012C000CF140020A05C00000C15002038B5114B95
:1012D000114C1B6820461A0C2380A270032101F0D8
:1012E00095FB4FF47A714FF4FA6003F049F90B4B18
:1012F000C8250FCB84E80F0020460F2101F086FBA4
:1013000000220A20064B0749074C1A702560088006
:1013100038BD00BF0C5D0000581100201C5D0000AE
:1013200058120020BA0900200C15002038B50328F7
:101330000DD8DFE800F0322510021F4A1F4B07CA04
:1013400003C31846092120F8082901F05FFBC822D1
:101350001B4B1A6038BD194C1A4D0FCD0FC495E8C0
:10136000030044F8040B24F8021B20460B0C00F881
:101370001639162101F04AFBC822114B1A6038BDFC
:101380000E4C114B0FCB84E80F000F21204601F0CB
:101390003DFBC8220A4B1A6038BD0C4B074C0FCBE3
:1013A00007C420460D2120F80C3901F02FFBC8227C
:1013B000034B1A6038BD00BF885C00005811002044
:1013C0000C150020D85D0000C85D0000F05D000035
:1013D0002DE9F041494C0022A446494F86B001AEA8
:1013E000019205468846C6E90122C6E9032297E82C
:1013F0000700ACE803006746ACF80020120C07F8C1
:10140000022F01232A4602E00133342B42D012F886
:1014100001CBBCF1220FF7D192F800C01FFA83FE76
:10142000BCF12B0FF0D1B8F1000F36D0BEF1310F67
:101430005FD83246C6F101039E440EEB02039BB215
:1014400002F801CB15F803C0BCF1220FF5D13146EB
:101450002C4803F054FC294803F059FC03462A4960
:101460002A4A0D881068E5525A1C0433A0502849B6
:10147000E01803F044FC214803F049FC0346254AE8
:1014800003CAE218E05007335160E018224903F024
:1014900036FC18E0B8F1000F2BD11B4A1F4BB2F8F5
:1014A00000C01F4D07CB1F4E1B88C4F80A0079608F
:1014B000BA60BB810FCEA4F817C00FC596E8030031
:1014C00045F8040B298018490C4803F009FC0B4827
:1014D00003F01DFC0146094889B201F097FA4FF468
:1014E0007A714FF4FA6003F04BF8012006B0BDE8C2
:1014F000F081002006B0BDE8F08100BF5811002047
:101500000C5E000062110020085E0000FC59000023
:10151000BF140020005A0000E3140020185E0000F1
:1015200070110020085A00000F5D000070B55C4982
:10153000A8B0054603F0F3FB002861D004466722FB
:1015400058490EA803F096FB2A2200210DF15F00F6
:1015500003F09DFB0DF15F0CE21C04F114009646B4
:1015600012F9013BA3F130012C2BC9B20CD02E2B68
:101570003CD009293AD90A2B01D00D2B67D19646C8
:1015800082420CF1010CEAD10EF101030DF183014D
:101590000EF1070E9C4613F9012BD0B22C2AA0F1B4
:1015A000300407D0092C25D89C4608709E4501F1CF
:1015B0000101EFD100230CF1010C0DF16E0104E0EB
:1015C0000133142B01F8012F24D01CF9012B2C2AF4
:1015D000F6D10024A0336B44672232480EA903F8E9
:1015E000314C03F047FB012028B070BD96468CF8C3
:1015F0000030C5E70A2A01D00D2A44D19C46D5E720
:101600002846294903F08BFB00280CBF002002204C
:1016100028B070BD0025254E01AC0FCE0FC496E852
:101620000F0007C48CF846506146237001A803F0F0
:1016300057FB502201A91E4801F008FA4FF47A71B5
:101640004FF4FA7002F09CFF284628B070BD174E88
:1016500001AD0FCE0FC596E80F00002407C57146F7
:101660008EF846402B7001A803F03AFB502201A9E6
:101670000F4801F0EBF94FF4FA704FF47A7102F071
:101680007FFF2046B0E70024084E01AD0FCE0FC506
:1016900096E80F008CF8464007C56146E2E700BFB8
:1016A000205A000098140020245A0000285A0000F4
:1016B000441800202DE9F0478846AA4907461646F7
:1016C00003F02DFB002836D005464FF0010AA64C4A
:1016D000A64BDFF8F0920FCB84E80F0020460F21D5
:1016E00089F800A001F092F928461FFA88F1FFF767
:1016F0001DFF5045044632D0022800F0D1819C4D98
:1017000016229C499C4801F0A1F92B780B2B10D88C
:10171000DFE813F00C00AC0183015A010001E7007F
:10172000CD01CC00B1008F0074005B00002E00F0F2
:10173000E081BDE8F0873846904903F0F0FA58B1EF
:10174000894C8A4B8A4D0FCB84E80F0020460F212D
:1017500001F05CF92B78D9E7854D2B78D6E7FFF7B8
:1017600081FC4FF47A714FF4FA7002F009FF804D5A
:1017700067228349834803F07DFA21463846FFF704
:1017800027FE2B78062BC1D17F4B1C80002E40F00A
:10179000938107260A204FF496612E707B4A7C4D78
:1017A000714C296018800FCA07C420460D2120F80B
:1017B0000C3901F02BF94FF4967333222B607549E5
:1017C0006D48BDE8F04701F041B9002E00F0888275
:1017D000012EAED13846704903F0A1FA0446002824
:1017E00045D138461FFA88F1FFF7C2F9022800F008
:1017F000EE82CC289DD1694B1C609AE7002E00F048
:101800003382012E95D138461FFA88F1FFF7B0F9DF
:10181000AA2800F0E38238465F4903F080FA0028E6
:1018200000F0CE82BDE8F04700225D4B1A70FFF752
:101830004DBD002E40F0C581534A1388013B9BB239
:101840001380002B40F07982474C564D0FCD0FC4CA
:1018500020462B68102100F8103901F0D7F84FF41A
:101860007A71C8224A4B08461A6002F089FEBDE828
:10187000F047FFF72BBD002E00F08A81012E7FF488
:1018800058AF3846484903F04AFA00283FF451AFB0
:101890000A2109233C4A2B701180FFF799FCBDE80F
:1018A000F04723224149344801F0D0B8002E00F01F
:1018B000B981012E7FF43DAF38463D4903F02FFA40
:1018C000002800F05E820A2109232F4A2B70118024
:1018D000FFF77EFCBDE8F04726223649264801F096
:1018E000B5B8002E40F0A881274A1388013B9BB26F
:1018F0001380002BBBD0304B1B4C0FCB07C42046B2
:101900000D2120F80C3901F081F84FF49672204B2C
:101910001A600EE7002E00F06F81012E7FF409AFF0
:101920003846264903F0FBF900283FF402AF0A20AD
:1019300005221549204B0C4C2A7008800FCB07C498
:1019400020464FF4967420F80C390D2101F05EF812
:101950000F4B28221C601A490748BDE8F04701F0E8
:1019600075B800BF005E000058110020E45C000064
:1019700058120020485A000044180020605A000005
:101980004000000898140020BA090020545D0000AF
:101990000C150020445B00002C5D00005C12002050
:1019A00014150020745D00003C5D0000E05B000049
:1019B000445D0000B85B0000C45C0000C05D000036
:1019C000E45A000061120020002E00F0D380012EA6
:1019D0007FF4AFAE3846AC4903F0A1F900283FF4DC
:1019E000A8AEAA4C207804283FF6A3AEFFF79EFCD1
:1019F00023780133DBB2052B23707FF49AAE0A21E2
:101A00000423A34A2B701180FFF7CAFBBDE8F047FF
:101A10002222A049A04801F019B8002E00F09E80B3
:101A2000012E7FF486AE3846974903F078F90028F6
:101A30003FF47FAE0A21964A032011800021934A89
:101A4000964B974C287011700FCB07C42046C824C2
:101A500020F80C390D2100F0D9FF924B29221C608F
:101A600091498D48BDE8F04700F0F0BF002E5FD0EF
:101A7000012E7FF45EAE3846834903F050F900280A
:101A800000F09B810A210223814A2B701180FFF70D
:101A9000DDFBBDE8F047262284497F4800F0D6BF31
:101AA000834D51463846FFF793FC2B782EE6002EE7
:101AB00000F02581DFF8249299F80030002B3FF4E4
:101AC00038AE00220A2189F80020714A794B118032
:101AD0000722734C2A700FCB07C420464FF4967729
:101AE000704E0D2120F80C39376000F08FFF376001
:101AF0001FE6714A1378002B3FF41BAE6F4968480C
:101B00000968013B0180090C81700321137000F00A
:101B10007DFF4FF47A714FF4FA6002F031FD0A2430
:101B20000121C8225F4B5A48297004801A6000E6E0
:101B3000574A1388013B9BB21380002B3FF497AEAA
:101B40005F4A574B07CA03C31846082100F8082903
:101B500000F05CFFC822534B1A60EAE54C4A138838
:101B6000013B9BB21380002B3FF481AEBDE8F047F0
:101B7000FFF76CBB464A1388013B9BB21380002BD6
:101B800040F0DF80FFF7A2FBC822464B1A60D0E589
:101B90003F4A1388013B9BB21380002B3FF467AE92
:101BA000484B3F4C0FCB07C424F8023B20461A0C8D
:101BB00000F80E290E2100F029FFC822394B1A60C7
:101BC000B7E5012E7FF4B5AD38463F4903F0A7F8DD
:101BD000002800F0C3800A242C7040F6B835FFF7C7
:101BE000A7F82B492F4B0C801D602322BDE8F0473E
:101BF0003649294800F02ABF254A1388013B9BB289
:101C00001380002B3FF433AE314B254C0FCB07C470
:101C100020460D2100F80C3900F0F8FEC822214BB7
:101C20001A6086E51A4A1388013B9BB21380002B89
:101C30003FF41DAE1F4B5FE6012E7FF47AAD3846B0
:101C4000244903F06CF800283FF473AD06236426A2
:101C5000144C3322204910482B70266000F0F6FE09
:101C600004220B4B1A8064E5094A1388013B9BB29E
:101C70001380002B3FF4FBADFFF75AF84FF4FF72CF
:101C8000084B1A6055E500BF3C5D00006012002063
:101C9000BA090020BC5A000044180020F05D000082
:101CA000581100200C150020905A0000685A0000BE
:101CB00058120020545D0000B80900200C5D00009F
:101CC000945C0000645D0000A45D0000085C0000FE
:101CD000B05D0000D45C0000105B000061120020C9
:101CE0004F4C2368092B3FF7C2ADFEF7D5FF42F6F4
:101CF000E06123684B4A01332360116019E54A4BC8
:101D00001A88013A92B21A80002A3FF442AD474C39
:101D1000474D0FCD0FC495E8030044F8040B24F899
:101D2000021B20460B0C00F81639162100F06EFE3F
:101D30004FF47A723B4B1A60FBE4BDE8F047FFF7C3
:101D400047BA3C4A3C4B394C16700FCB07C420466F
:101D50000D2120F80C3900F059FE15E738463749B7
:101D600002F0DDFF00283FF4E4AC19223449354885
:101D700000F06CFE4FF4FF722A4B2B491A600E8064
:101D8000D7E40A20082228492F4B284C2A700880C3
:101D90000FCB07C424F8023B2046C8241A0C00F8D5
:101DA0000E290E2100F032FE1E4B37221C602749FF
:101DB0002448BDE8F04700F049BE1E4B1870B8E457
:101DC0002822BDE8F04722491E4800F03FBE4246A7
:101DD0003946BDE8F0471B4800F038BE0A200B2109
:101DE0000022114B297018800D4B1A60FEF754FF2A
:101DF00042F6E06217480B4B3146067040F206206F
:101E00001A6000F027FB314640F2072000F022FB69
:101E1000BDE8F0471E2210490A4800F017BE00BF77
:101E20005C1200200C150020BA0900205811002077
:101E3000F45C000060120020F05D0000105D000006
:101E40002C5C000044180020645D00007C5B0000F6
:101E5000685C000014150020485C000038B5054699
:101E6000EFF31082012383F310889C4C23681BB985
:101E70009B49CB704023CB7023680133236082F3EE
:101E80001088984B9848D3F84011014041F0050163
:101E9000C3F84011D3F8CC10014041F00501C3F85C
:101EA000CC10196D014041F004011965DA68024057
:101EB00042F00502DA607DB1012D00F07A818B4B92
:101EC0001A78062A44D8DFE812F07400A40015013D
:101ED000420144004400D100FFF746F9EFF31082BD
:101EE000012383F3108823681BB940217C4BDD70EC
:101EF000D97023680133236082F31088794A5368CC
:101F000023F0011323F4404343F004035360EFF341
:101F10001082012383F31088236813B12368013BE7
:101F2000236023681BB980206D49CB70C87082F391
:101F30001088322401206E4B6A4A1C60936C6B49F6
:101F400023F0011323F4404343F005039364087026
:101F500038BDEFF31081012282F3108822681AB98C
:101F60005F48C2704022C27022680132226081F351
:101F700010885C494A6822F0011222F4404242F083
:101F800005024A60EFF31081012282F31088226873
:101F900012B12268013A22602268002A00F03A81D8
:101FA00081F3108841201A78514901321A70086073
:101FB00038BDEFF31081012282F3108822681AB92C
:101FC0004748C2704022C27022680132226081F309
:101FD00010884448444D4168294041F00401416063
:101FE000826C2A4042F005028264EFF310810122E4
:101FF00082F31088226812B12268013A22602268B6
:102000001AB980243648C270C47081F31088322017
:10201000C9E7EFF31081012282F3108822681AB910
:102020002F48C2704022C27022680132226081F3C0
:1020300010882C494A6822F0011222F4404242F0F2
:1020400005024A60EFF31081012282F310882268B2
:1020500012B12268013A226022681AB9802420480D
:10206000C270C47081F3108803209CE7EFF31081E5
:10207000012282F3108822681AB91948C2704022DE
:10208000C27022680132226081F31088154A164D11
:102090005068284040F004005060D2F8CC0028403E
:1020A00040F00400C2F8CC00D168294041F004019E
:1020B000D160EFF31081012282F31088226812B1FF
:1020C0002268013A226022681AB980240448C2704A
:1020D000C47081F3108800221A7038BD7C1900206A
:1020E000000D084000080840FE3FFEFFFF140020DE
:1020F00010150020EFF31081012282F3108822686E
:102100001AB94748C2704022C27022680132226068
:1021100081F3108843498A6C22F0011222F4404274
:1021200042F004028A64EFF31081012282F31088E6
:10213000226812B12268013A226022681AB980240A
:102140003748C270C47081F310882F202BE7EFF35B
:102150001081012282F3108822681AB93048C270B7
:102160004022C27022680132226081F310882D491A
:102170004A6822F0011222F4404242F004024A600E
:10218000EFF31081012282F31088226812B12268D5
:10219000013A226022681AB980242148C270C470B2
:1021A00081F310881A7801321A70BDE83840FEF7C2
:1021B000E1BFEFF3108285F3108823681BB940203C
:1021C0001749CB70C87023680133236082F31088ED
:1021D000144A536823F0011323F4404343F00503EA
:1021E0005360EFF31082012383F31088236813B147
:1021F0002368013B236023681BB980200849CB700A
:10220000C87082F3108805224120074B07491A70D5
:10221000086038BD80240248C270C470C0E600BFA8
:10222000000D084000080840FF1400201015002091
:1022300010B54FF0000C01220A2340F201148CB0BB
:1022400001A90548CDE901320A94ADF82CC001F08E
:10225000FBF80CB010BD00BFC0180020022800D051
:1022600070470249024801F055BC00BF5C5F0000A6
:1022700028180020037813B90122014B1A70704707
:1022800094140020EFF31081012383F310886D4B29
:102290001A682AB94FF0400C6B48C27080F803C02E
:1022A0001A6801321A6081F31088684A117800298F
:1022B00072D000211170EFF31081012282F3108897
:1022C0001A682AB94FF0400C5F48C27080F803C00A
:1022D0001A6801321A6081F310885D49D1F898209C
:1022E00022F0011222F4404242F00502C1F8982087
:1022F000EFF31081012282F310881A6812B11A6874
:10230000013A1A601A682AB94FF0800C4E48C27020
:1023100080F803C081F31088EFF31081012282F36B
:1023200010881A68002A00F085801A6801321A6045
:1023300081F310884649D1F89C2022F0011222F442
:10234000404242F00402C1F89C20EFF310810122C8
:1023500082F310881A6812B11A68013A1A601A6872
:102360002AB94FF0800C3848C27080F803C081F35E
:102370001088EFF31082012181F31088196811B1E0
:102380001968013919601B681BB980202E49CB7070
:10239000C87082F31088704701211170EFF310802C
:1023A00081F310881A682AB94FF0400C2649CA7088
:1023B00081F803C01A6801321A6080F3108824493A
:1023C000D1F8982022F0011222F4404242F0040297
:1023D000C1F89820EFF31081012282F310881A6867
:1023E00012B11A68013A1A601A682AB94FF0800CC3
:1023F0001548C27080F803C081F31088EFF3108194
:10240000012282F310881A682AB94FF0400C0E4856
:10241000C27080F803C01A6801321A6081F3108814
:102420000B49D1F89C2022F0011222F4404242F0E4
:10243000050288E74FF0400C0348C27080F803C0E3
:1024400073E700BF7C190020000D08400015002034
:102450000008084010B5EFF3108C012383F31088B7
:102460002A4B1A682AB94FF0400E294CE27084F8C2
:1024700003E01A6801321A608CF3108840F20622D9
:1024800090422AD0E9B92349D1F89C2022F00112C8
:1024900022F4404242F00502C1F89C20EFF3108282
:1024A000012181F31088196811B119680139196087
:1024B0001B681BB980201649CB70C87082F3108846
:1024C00010BD1449D1F89C2022F0011222F44042A0
:1024D00042F00402C1F89C20E0E759B10D49D1F85F
:1024E000982022F0011222F4404242F00402C1F886
:1024F0009820D3E70749D1F8982022F0011222F45E
:10250000404242F00502C1F89820C7E77C1900203C
:10251000000D08400008084038B5244B6722002110
:10252000184602F0B4FB01240346082000211A19C2
:10253000D87583F82500D0706FF029053120998275
:102540005976197751719171D1714FF496415D703F
:1025500010711F256FF03C0059826FF03D015570DE
:1025600090704FF4847C4FF416521C76DC7683F81E
:1025700026400F4D0F4C997603CC0F4CC3F8370013
:102580002868C3F83B10C3F84B001A62A3F81EC0BA
:1025900007CCC3F82700C3F82B10C3F82F202278EC
:1025A00083F83320BDE83840FEF75CBD9814002066
:1025B000345E0000285E00003C5E0000FFFFFFFF6D
:1025C0002DE9F04F84499DB0844801F0A3FAEFF360
:1025D0001081012383F31088814A13681BB94024BA
:1025E0008048C370C47013680133136081F310888E
:1025F0007D49D1F8083123F0011323F4404343F01F
:102600000503C1F80831EFF31081012383F310882B
:10261000136813B11368013B136013681BB9802062
:10262000704AD370D07081F310887049704801F0FF
:102630007BF87049704801F017FE6F4801F004FE06
:1026400000F00EF96D496E4801F072FB62B6FEF7BC
:1026500047FD62B64FF47A7140F6B83001F090FF52
:102660003C2203A9674800F0F1F9FEF7D3FB0028EC
:1026700000F0AA8000226FF02904634D1F23AA7185
:10268000EA712A7208226C706FF03C0464213126D2
:10269000AB705E4B2A711B685D4AEC70A2FB034273
:1026A000520901FB12336E715A4903A848A7D7E9B2
:1026B0000067CDE9006702F0F3FA5749574800F088
:1026C0002FFE5749554800F091FD5649534800F0F8
:1026D0007FFC4FF47A714FF4FA6001F051FFFFF77D
:1026E000A7FD0123504C237062B6434801F09EFDC4
:1026F000DFF84C81DFF84C91DFF84CB1494F474E81
:102700003B4D03E000202070FFF7A8FB3946304620
:1027100000F05EFC284602A900F0F2FF9DF80930A7
:102720002BB998F8003043F0400388F8003094F853
:1027300000A0BAF1000FE5D199F80030002BE1D0EC
:10274000FEF70CFDC0B1394B1968D9B9384B1B786D
:10275000002B32D1DBF800302BBB364A13780BB19B
:1027600000231370344B1B78002BCFD00023324A48
:102770001370FEF777FCC9E7FEF7F6FC0120FFF7C0
:102780006DFBC3E701222D48FEF794FF1A4801F0C4
:1027900065FD264B1848C3F800A001F055FDDBF895
:1027A0000030002BD9D0144801F058FD0023124806
:1027B000CBF8003001F048FDCFE71D4B0A46084634
:1027C0001970FEF777FFC5E7FFF7A6FE52E700BFD7
:1027D000D61FC308310000005C5F000028180020ED
:1027E0007C190020000D084000080840805E0000B1
:1027F00030180020F85E0000A4180020485F000098
:10280000D81800204418002098140020000500006B
:102810001F85EB514C5E0000205F0000C0180020B7
:10282000BC09002064120020E00900208C14002064
:102830008912002094140020081500208C1200201A
:1028400088120020FF14002090140020037923B97F
:10285000024A137843F04003137070478812002037
:1028600008B50549054800F037F9BDE808400449B6
:10287000044800F031B900BFC85E000074180020A1
:10288000985E0000441800200B4902790B4B0A7037
:102890001978FF2904BF00211970042A0BD14FF0C9
:1028A000030C197880684A1CD2B21A70044A054B8E
:1028B000505483F800C070471817002017160020E6
:1028C00018160020171700200C4902790C4B0A70CB
:1028D0001968FF2904BF00211960042A00D070473D
:1028E00003211A6810B48468501C18600548064B10
:1028F000845419705DF8044B704700BF2018002005
:102900001C170020201700201F18002038B52E4B60
:102910001A7842B11A78013AD2B21A701B7803F0D1
:10292000FF04002B38D0294B1A7842B11A78013AAB
:10293000D2B21A701B7803F0FF04002B37D0244A60
:1029400013688BB1013B1360D3B1224B1B7853B991
:102950002149224A0B682248013303FB02F2B0EB03
:10296000B20F0B6014D238BD1E4A1368002BECD096
:10297000013B1360002BE8D101221B4B1A70E4E7E6
:102980001A4B1B78002BE0D00220FFF767FADCE738
:10299000BDE83840FFF776BC154D16492A68164841
:1029A00002F068F92A68154B2C601A60BBE7144DD9
:1029B00014492A78144802F05DF929781248FEF784
:1029C000FFF82C70BBE700BF1F180020171700206E
:1029D000101500201415002024180020295C8FC237
:1029E000285C8F020C15002089120020FF140020A3
:1029F0001C170020201700208C1200208C140020AF
:102A000017160020181600201815002003460A4645
:102A100000B5194683B00748CDE9002300F016F849
:102A2000DDE90021044B05481A6003B05DF804EBB2
:102A300002F020B974180020901400208C1300209C
:102A400008B5FFF7BDFD002008BD00BF10B4046A43
:102A5000A37803F07B03A370837803F00303D21AF7
:102A60000B440261A278C360837842F0800203F0D5
:102A70000303022BA27005D00B780020E3705DF8F1
:102A8000044B70470B88002043F47E43E3815DF8DC
:102A9000044B7047F0B5846A85B005460F469446EE
:102AA0006E46B4B194E80F0086E80F00EB6920464B
:102AB0001B7884F804C02360EB6AC4E902736B6A74
:102AC0009847AC6A1CB196E80F0084E80F0005B087
:102AD000F0BD3446EAE700BF2DE9F0470024034685
:102AE00001250A78047002F5800202F58C52120268
:102AF00002624A69C16142629A78886965F301029B
:102B00009C62D8629A704A78022A03D1987862F35C
:102B100001009870012491F90B50B84A680905F03A
:102B20001F07203004FA07F78E7A42F82070BFF3AF
:102B30004F8FBFF36F8FB24805F1C00750F827C021
:102B400036016FF3104C40F827C0AE4F02EB050C76
:102B5000F6B28CF8006347F8253091F905500E79EC
:102B60004FEA551C05F01F0E0CF1200C04FA0EFE66
:102B700042F82CE0BFF34F8FBFF36F8F05F1C00C0D
:102B800050F82CE036016FF3104E40F82CE0F6B20E
:102B900002EB050C8CF8006347F8253091F90750DB
:102BA0008E794FEA551C05F01F0E0CF1200C04FA2B
:102BB0000EFE42F82CE0BFF34F8FBFF36F8F05F18D
:102BC000C00C50F82CE036016FF3104E40F82CE0AA
:102BD000F6B202EB050C8CF8006347F8253091F94A
:102BE00009600D7A4FEA561C06F01F0E0CF1200CFE
:102BF00004FA0EFE42F82CE0BFF34F8FBFF36F8F45
:102C000006F1C00C50F82CE02D01EDB232446FF308
:102C1000104E40F82CE082F8005347F82630EFF3CE
:102C2000108584F310884FF00044774A0E7850687E
:102C3000F44020EA04005060526885F310880020B8
:102C400040F219241A6A0625907010715072907221
:102C5000D0725083087824FA00F0C00744BF4020A7
:102C6000D07440F21920CC6915770D788E78E84041
:102C7000C70748BF4FF478404D78C97848BF908265
:102C8000C900012D41EA061100F0B480022D14BFE5
:102C9000F220E220C9B211709071217B08291CBF7B
:102CA000490001F0020151736178A078C901400127
:102CB00000F02000C9B20143002010722678B01E37
:102CC000012840F28E80C9B2D171616888784D7850
:102CD0005070107865F301001070C878097890740E
:102CE000D07901F05C0100F0A3000143D171002014
:102CF0004FF00108C3E90300C3E90500D3F81C90B5
:102D00003F4999F905C0414F0CF1C00E4FEA5C15DF
:102D100051F82EA0AD000CF01F0C05F1604508FA2B
:102D20000CFC05F5614560F3104A41F82EA0C5F88A
:102D300080C1C5F800C099F90BC006F003060CF17C
:102D4000C00E4FEA5C1551F82EA0AD000CF01F0C20
:102D500005F1604508FA0CFC05F5614560F3104A81
:102D600041F82EA0C5F880C1C5F800C099F907E068
:102D700046F070060EF1C00A4FEA5E1C0EF01F0E00
:102D800008FA0EF54FEA8C0C51F82AE00CF1604C71
:102D90000CF5614C60F3104E41F82AE0CCF88051FC
:102DA000CCF8005099F9095005F1C00C51F82CE00D
:102DB00060F3104E41F82CE069098900B4F80AC0AC
:102DC00001F1604105F01F0408FA04F401F56141C6
:102DD000C1F880410C609670A3F808C05F60BDE840
:102DE000F087FF20022E08BF41F01001C9B25070D9
:102DF000D1717CE7F22041F040014BE700E100E0B7
:102E000000600040801900200040084055494353AD
:102E100030B4EFF30383103B5BB21D4A03F1C001F2
:102E200052F821001B4C6FF3104042F8210054F877
:102E30002300C3691B691BB103691BB130BC704718
:102E4000036963B90021046A8022A37803F07F0339
:102E500043F00403A370C16030BCFFF71BBE82784F
:102E600002F003010229C1680BD0046A91F800C086
:102E700084F803C002F003029B1A0A44C0E903234A
:102E8000DBE70C88056A44F47E44EC81F2E700BF7E
:102E9000006000408019002010B582B0EFF303837A
:102EA000103B1E4A5BB203F1C00152F821001C4CDA
:102EB0006FF3104042F8210054F82340A27802F04A
:102EC0000303022B236A0CBF198A5979A3690CBF2B
:102ED000C1F30801C9B2019133B90422204602B0FE
:102EE000BDE81040FFF7D6BD02F0030201A96069FA
:102EF00001F0C0FED4E90521A37803F003031A44CE
:102F0000C91AC4E9052109B102B010BD0122204649
:102F100002B0BDE81040FFF7BDBD00BF006000403B
:102F20008019002010B5EFF303840B4B103C64B202
:102F300053F824000222016AC0348B7803F07B032B
:102F40008B700021FFF7A6FD044B53F824206FF38C
:102F5000104243F8242010BD80190020006000407A
:102F600010B5EFF30384184B103C64B253F82400FF
:102F7000837803F00303022B036A0CBF198A597983
:102F800093F804C00CBFC1F30801C9B21CF0100FC4
:102F90000CF0380206D093F81CC01CF0010F08BFDB
:102FA00042F0400293F804C0C0340CF0C70C83F820
:102FB00004C0FFF76FFD054B53F824206FF3104258
:102FC00043F8242010BD00BF80190020006000409D
:102FD0002DE9F04F4368894693F9111083B0002919
:102FE000C0F29A805D4B4FEA511B53F82B3001F031
:102FF0001F0A23FA0AFA1AF0010A01F01F030193CB
:1030000020D1574A92F8223043F0020382F822304E
:1030100092F822309C07FBD501224FF0000A514C58
:10302000C03154F821504FEA8B036FF3104544F838
:103030002150019903F1604303F561438A40C3F8CD
:1030400080211A604FF00008454B80F808809E7878
:103050001D799F791C7A93F80AE01A7BB3F80EC0A9
:10306000017AF6B2EDB2FFB2E4B25FFA8EFED2B2EE
:103070001FFA8CFC0029E8D1110901EB810102F053
:103080000F0202EB4102D2B2013AC9F81020320914
:1030900002EB820206F00F0606EB42062A0902EB5B
:1030A000820205F00F0505EB4205220902EB8202C0
:1030B00004F00F0404EB42044FEA1E1202EB8201FB
:1030C0000EF00F0202EB4102D2B2C9F80C20CCF391
:1030D000031202EB82010CF00F0202EB4102D2B2AA
:1030E000C9F81420C7F3011202EB820207F00F07A0
:1030F000F6B2EDB2E4B207EB4207C9F80060C9F8D6
:103100000450C9F81840C9F80870BAF1000F09D086
:10311000002003B0BDE8F08F01F01F034FEA511B00
:1031200001936EE793F822100D4A01F0FD0183F838
:10313000221092F822309B07FBD401230199074A01
:103140000BF1200B8B4042F82B30BFF34F8FBFF3B6
:103150006F8F002003B0BDE8F08F00BF00E100E0FA
:10316000003008400060004030B41F4D95F8244006
:10317000C4F30014844213D0002485F82E4095F83F
:103180002E40002CFBD195F824C0174C60F3041C92
:1031900085F824C094F824C0CCF3001C8445F9D1F0
:1031A00001280DD003F03F030F4943EA8212D2B247
:1031B00081F82E2091F82E309A42FBD130BC704716
:1031C000094C94F82400C0F340108842EAD094F8E7
:1031D000240061F3451084F8240094F82400C0F31F
:1031E00040108142F9D1DDE7003008402DE9F04F71
:1031F000494B85B093F824206FF3000283F8242014
:1032000093F82420D207FBD4406891F800B00290D4
:103210000869424A013091F804A091F808E091F859
:1032200018C0C4B2087B097DA2FB0B59019103941D
:10323000A2FB0E57A2FB0C56A2FB0A58A2FB0414D9
:10324000A2FB00150199A2FB01124FEAD90101EB83
:103250008101ABEB41014FEAD90941EA0911C9B239
:1032600099704FEAD80101EB8101AAEB41014FEAC5
:10327000D80841EA0811C9B21971F90801EB8101B6
:10328000AEEB410EF10801EB8101ACEB410CE9081A
:1032900001EB8101A0EB4100ED0840EA0510E108D7
:1032A000039D01EB8101A5EB4101FF08F608E4084D
:1032B00041EA04144EEA07174CEA0616C0B2E4B21B
:1032C00007F03F07F6B29F71D1081E7298721C7307
:1032D000019C01EB8101A4EB4101D20841EA0212F9
:1032E0000298D2B2DA81037873B10B4A92F8243093
:1032F00043F0010382F8243092F82430DB07FBD539
:10330000002005B0BDE8F08F80684368827841787E
:103310000078FFF729FFE8E700300840CDCCCCCC9F
:10332000F8B50C460023A2694969C0E9043244603B
:10333000C160037294F90FE00546BEF1000F227BD5
:1033400094F90DC0237C94F911000BDBA17B3B4F5A
:1033500009010EF16046C9B206F5614686F8001310
:1033600047F82E50BCF1000F0ADB344E12010CF16D
:103370006041D2B201F5614181F8002346F82C503A
:1033800000280ADB1B0100F16042DBB202F561425A
:1033900082F80033294B43F82050294A92F8243010
:1033A000D807C3F3000103D5264B00202B60F8BDDE
:1033B00082F8221082F82410237882F82830002B1B
:1033C00036D00121BE2001F0DBF81D4A92F82430EE
:1033D0006FF3000382F8243092F8243013F00103D5
:1033E000FAD192F8241041F0400182F82410696863
:1033F0000978012902D1A18853859185104A92F854
:1034000024306FF3C71382F8243092F82430DB099C
:10341000FBD192F824300A4943F0020382F82430A9
:1034200091F824309B07FBD4064B00202B60F8BD9D
:103430004FF47A71642001F0A3F8C6E780190020E8
:10344000003008404354520010B4436883B093F9ED
:103450000DC0BCF1000F11DB0122804C4FEA5C1360
:103460000CF01F0C203302FA0CF244F82320BFF3B7
:103470004F8FBFF36F8F436893F90DC091F82430DD
:10348000002B00F0E8800B78754AA2FB0302D008FD
:1034900000EB8000A3EB4003D20843EA021363F081
:1034A0007F03DBB28DF807309DF807306D4891F847
:1034B0002520DBB20374002A00F0CA800B79684A29
:1034C000A2FB0302D00800EB8000A3EB4003D2086C
:1034D00043EA021363F07F03DBB28DF807309DF8F7
:1034E0000730604891F82620DBB28374002A00F090
:1034F000AC800B7A5A4AA2FB0302D00800EB800092
:10350000A3EB4003D20843EA021363F07F03DBB26C
:103510008DF807309DF80730524891F82A20DBB229
:103520000375002A00F08E800B7E43F080038DF837
:1035300007309DF807304B4891F82720DBB28375A0
:10354000002A7BD00B7B464AA2FB0302D00800EB8B
:103550008000A3EB4003D20843EA021363F07F0329
:10356000DBB28DF807309DF807303E4891F82820EF
:10357000DBB20376002A5ED00B69394A0133DBB235
:10358000A2FB0302D00800EB8000A3EB4003D208AB
:1035900043EA021363F07F03DBB28DF807309DF836
:1035A0000730304A91F82900DBB2937600283FD0EB
:1035B0004B692B4A643BDBB2A2FB0312D10801EB3F
:1035C0008101A3EB4103D20843EA0213DBB28DF879
:1035D00007309DF80730234A9383937F60F3C71326
:1035E000937792F8223043F0010382F8223092F868
:1035F0002230DB07FBD51C4B0CF1C00153F8210036
:1036000001226FF3104043F8210000204FEA5C13C1
:103610009B000CF01F0C03F1604303F5614302FAB9
:103620000CF2C3F880211A6003B05DF8044B7047B8
:103630008DF80700CDE78DF80720B0E701238DF85E
:10364000073090E78DF8072073E78DF8072061E7D2
:103650008DF8072043E78DF8073025E700E100E00B
:10366000CDCCCCCC0030084000600040F0B583B039
:10367000EFF30384154B103C64B253F82450EF6809
:10368000BFB16A682B6992F90D206E46121B18BFF4
:103690000122C3B193E8030086E803001A706A6947
:1036A00018465A60B8472B691BB196E8030083E8B7
:1036B0000300074BC03453F824206FF3104243F843
:1036C000242003B0F0BD3346E8E700BF8019002096
:1036D00000600040EFF303830120074A103B5BB218
:1036E00052F82310054AC033087252F823106FF3C2
:1036F000104142F8231070478019002000600040FC
:10370000436800201B68012B064B0CBF93F8E13087
:1037100093F8E330DBB203F00102C3F340030A7015
:103720004B70704700E001400023CA682DE9F04764
:10373000C0E901120A69684EC0E903320A684D798E
:10374000571E032D46F8270004468E7909D0012D17
:1037500000F09980002D00F08580CB79DB0143F0EB
:10376000400391F908506A1C6FD043EA05186B1C9E
:1037700002259D40594B033503FB05F5ED0B013543
:103780000A2D38BF0A25022000F0D2FFEFF310897E
:10379000012383F31088524B524A93F817C052F812
:1037A00027E0DA7D0CF0800C02F07F02DA75197EDA
:1037B0001A7E01F0800102F07F021A764A4A6068A0
:1037C00052F827A09EF80020007922EA0A0202435C
:1037D0008EF80020DA7D002F3BD042EA0C0C012F3E
:1037E00083F817C039D03E4A137E1943117689F306
:1037F000108800223D4B5FFA88F853F827903C4B25
:1038000089F8008053F827301E703A4B53F8273060
:103810001A7063685B79032B05D099F8003043F088
:10382000010389F800300121284600F0A9FE99F82B
:103830000030022043F0040389F8003000F048FF14
:103840002D4B00202360BDE8F0870A2543F00208D5
:1038500099E742F08002DA75C5E71A7E42F08002ED
:103860001A76C4E702F1010824495FFA88F000F0F3
:10387000BBFE0122224902FA08F292B2A1F82021ED
:103880002B4661686DE791F90920887A02F1604C56
:103890000001DFF870E0C0B20CF5614C8CF8000359
:1038A000DFF85CC050094EF82240800002F1C00EE3
:1038B00002F01F02954000F160425CF82E0002F514
:1038C000614263F310404CF82E0046F00406C2F843
:1038D0008051156045E700BF1C19002040420F00D1
:1038E00000E40140FC60000014610000046100007D
:1038F0000C6100001C61000044564C00653900005A
:103900000060004080190020F0B54268C368176865
:1039100085B004467E1E01AD03B393E8070085E839
:1039200007000F4A184652F8266032781F60C2F32B
:1039300040021A7122699A60A3689847E3681BB134
:1039400095E8070083E80700022000F0F1FE00235D
:103950000220337000F0BCFE05B0F0BD2B46E0E75E
:103960001C610000024B023853F82000FFF7CCBF67
:103970001C19002010B4EFF30383103B084A5BB21C
:1039800003F1C00152F82100064C6FF3104042F8D9
:10399000210054F823005DF8044BFFF7B5BF00BFCA
:1039A000006000408019002038B50488002C4CD0FD
:1039B0000021436840F20245043303EBC40040F2A7
:1039C000034C40F2044E0C460FE062452FD153F8F1
:1039D000042C02F0B852B2F1807F14BF41F0020112
:1039E00044F002040833834210D01A88AA42ECD172
:1039F00053F8042C083302F0B852B2F1807F14BFA0
:103A000041F0010144F001048342EED1C943CDB23B
:103A1000012000F08DFE0E4B012093F8BB241443CF
:103A20002C4083F8BB44BDE8384000F051BE7245DD
:103A3000D8D153F8042C02F0B852B2F1807F0CBFF9
:103A400044F0040441F00401CCE7FF25E0E700BFA7
:103A500000E00140F8B50446FFF7A6FFEFF310823F
:103A6000012383F31088284E33681BB92749CB7094
:103A70004023CB7033680133336082F3108823888E
:103A80007BB3626803F1FF3E1FFA8EFE02F108016C
:103A90001F4C01EBCE0E08E0D2B21B0113448E4541
:103AA0000A4644F823001CD008311068928810F4AC
:103AB000803F4FEA1223EFD0130AD2B202EB031C6D
:103AC00054F82C701B01134420F480356FF3104719
:103AD0008E4544F82C700A4644F82C5044F82300D4
:103AE000E2D1EFF31082012383F31088336813B11E
:103AF0003368013B336033681BB980200349CB70C6
:103B0000C87082F31088F8BD7C190020000D0840B1
:103B10000008084008B5034B03600846FFF79AFF0A
:103B2000002008BD54524F50F0B5012100243A4BFB
:103B300080F83440394A83F816148446186A1168AC
:103B40001B6AC0F3026201FA02F2354DC0F3027043
:103B5000C3F30263C2409940AA4221FA03F157D944
:103B6000304802F5742202F23F2201F57423A0FBD3
:103B7000021203F23F23A0FB0313920C2A4902F521
:103B8000F052A1F8E42043F6B851204644F25064C4
:103B900040F6D8665425254F9B0C03FB07F7244AB3
:103BA00003FB01F1A2FB07E7BF08CCF81870A2FBEA
:103BB000017103FB04F48908CCF808101D49A2FB2D
:103BC000047403FB01F1A408CCF82440A2FB0141DA
:103BD0008908CCF82010184903FB06F603FB01F115
:103BE00003FB05F55B00A2FB0676A2FB0575A2FBB5
:103BF0000343A2FB0112B608AD089B089208CCF85B
:103C00000C60CCF81450CCF81030CCF81C20F0BD6F
:103C10004FF4FB70F0BD00BF00E001400C1B002022
:103C2000FF083D0083DE1B4300E07F4038AF040007
:103C3000ABAAAAAA80DE0F00A0F7030030B5C36BC1
:103C400083B004460A466D468BB193E8030085E8CD
:103C500003001A70216C1846A26B59609047E36B01
:103C60001BB195E8030083E8030003B030BD2B4689
:103C7000EFE700BF4FF4964310B4426883B001935E
:103C8000137803BB4AF68023274AA2F88430B2F89F
:103C900084309BB2802B08D110E0019B013B019343
:103CA000B2F884309BB2802B08D0019B002BF4D15A
:103CB0004FF4FA7003B05DF8044B7047002003B076
:103CC0005DF8044B704792F91130184803F1C001B8
:103CD00050F821406FF3104440F82140012103F0D7
:103CE0001F045B099B0003F1604303F5614301FA84
:103CF00004F4C3F880411C6092F9132002F1C00360
:103D000050F823406FF3104440F8234053099B00C0
:103D100002F01F0203F1604301FA02F203F561436E
:103D2000C3F880211A60ADE700E07F4000600040EA
:103D30000B782DE9F0470446416053B92E4A1376BB
:103D400013752046FFF7F0FE08B92C4B2360BDE841
:103D5000F087012000274FF098094B68DFF898E0C2
:103D6000A363CB68E76323648EF818000A7C91F99B
:103D70001130234EDFF890C01201224D06EB0308EC
:103D8000D2B288F800234CF8234003F1C0085A0946
:103D900055F828A0920003F01F0302F1604200FAD8
:103DA00003F302F5614267F3104A45F828A0C2F810
:103DB000803113608EF814908B7C91F913201B01D5
:103DC000DBB2164486F8003302F1C0014CF8224001
:103DD000530902F01F0200FA02F29B0055F821007D
:103DE00003F1604303F5614367F3104045F8210098
:103DF000C3F880211A60A4E700E07F404E45504F91
:103E000000E100E00060004080190020B1F5801F53
:103E10002DE9F0410C46804615461E4613D200237C
:103E200080F834303370002A59D0114401E0A142A7
:103E300049D022780134FF2AF9D0012300273370BA
:103E40003846BDE8F081FFF715FF07460028F7D197
:103E50004FF0710E4FF0D00CD8F80430214A18788A
:103E600021496B1E82F8D07014631C44546381F89E
:103E700000E081F800C050BBD2F88030D8F81410B0
:103E8000AD08180405FB011105D431B3D2F8803018
:103E900001391B04F9D54FF4FC720021384601F0BA
:103EA000F7FB104B074693F8D430A3F10103B3FAA4
:103EB00083F35B09337001F0CBFB002F08BF07468B
:103EC0003846BDE8F08100273846BDE8F08103227E
:103ED000022388F834203370B2E71427DBE7174653
:103EE000AEE700BF00E07F4000007E402DE9F041DA
:103EF00000245B08B2F1006FC0E90A1284B080F8B8
:103F00003440036304D204B0BDE8F04101F0B8BB13
:103F10000546FFF7AFFE002857D16B6893F800C045
:103F2000BCF1000F54D1EE686FF01707304CDFF88A
:103F3000C4800223EA6A2263A96A286901F1040E97
:103F400088F8007088F800300B880390A8F80030DB
:103F500004E0039B5A1E0392002B3ED0D4F880301D
:103F60005B05F6D40231D5E90B23714502F102025B
:103F700003F1FF33C5E90A122B63E5D1D02388F89A
:103F800000305EB1D4F88030190407D4334600E025
:103F90001BB3D4F88020013B1204F9D50020BCF1FA
:103FA000000F12D118224FF4805101F071FB2A6BDF
:103FB00022B1A0B96B6893F800C0BAE7019001F094
:103FC00047FB019B002B18BF184604B0BDE8F081E9
:103FD0000123064685F83430A6E71420DFE7019078
:103FE00001F036FB019B184604B0BDE8F08100BF2C
:103FF00000E07F4000007E402DE9F8430023B1F14E
:10400000006F044680F834300ED2BDE8F843B1F5B5
:10401000803F35BF21F4FF5121F4FF4121F01F0102
:1040200021F07F0101F024BB21F03F018162026396
:10403000FFF720FE002846D16368197889BBE7683E
:1040400001224FF02008214EDFF88490236BA6F860
:10405000E020D025A26A013B02F14000326389F8DA
:10406000008089F80050A06223635FB1D6F88030E9
:10407000180407D43B4600E0C3B1D6F88020013BCA
:104080001204F9D50025C1B9284619224FF4005170
:1040900001F0FEFA236B054653B188B962681178C6
:1040A000D7E70223074684F83430C9E71425EAE746
:1040B00001F0CEFA002D08BF05462846BDE8F8837A
:1040C00001F0C6FAF9E74FF4FA75F6E700E07F4031
:1040D00000007E4030B583B0EFF30384164A1749E1
:1040E000137C103CD2F8800064B21A0751F82450B7
:1040F0000AD4DAB213061BD4D3061BD510F4405FE2
:1041000014BF0721062100E004212846019101F097
:10411000A7FA28460A4BC03453F8242001996FF3BC
:10412000104243F8242003B0BDE83040FFF786BDBD
:104130000521EAE70721E8E700E07F408019002039
:104140000060004070B582B0EFF30383103B334A48
:104150005BB203F1C00152F82100314C6FF3104003
:1041600054F8234042F8210094F83450012D25D012
:10417000022D12D02B4B93F8D430012B0CBF03250A
:10418000022501F065FA00232946204684F83430E0
:1041900002B0BDE87040FFF751BD256B002DF0D097
:1041A0002020D021A36A1F4E1F4A3363013D4033B4
:1041B00010701170A362256302B070BD236B002BD9
:1041C000DFD0E8220223E06A1649174D0863A06A8F
:1041D000266900F1040C2A702B70038801962B804D
:1041E00003E0019B5A1E019293B1D1F880305B0528
:1041F000F7D4E36A02300233E362236B604503F1D4
:10420000FF33A0622363E8D1D022074B1A70D3E7B3
:10421000204602B0BDE8704001F022BA00600040C4
:104220008019002000E07F4000007E408268117A03
:1042300001F00101137AC3F340039942FAD1F1234B
:1042400000201372704700BF0246F121D2E9022319
:10425000013B9BB213800020117270470346F0228D
:104260009B6800201A727047F0B50B7C416003F523
:10427000800303F568631B028360EFF3108501235D
:1042800083F310880A7C032A6CD8C2F1030293409E
:10429000DB433C4C3C4AE46823401360136885F3DD
:1042A0001088002382681372137AC3F3400C9B07B3
:1042B000FAD4CC6982F80AC0E37826780D7A24799A
:1042C00003F00703002E46D1002D53D100261473AE
:1042D0004C68D0F804E004F1FF3C96735372957279
:1042E000C4609EF81030294F1FFA8CFCA2F800C061
:1042F00047F8234091F91230B34222DB01244A7C73
:1043000003F160451201224FD2B205F5614585F8EF
:104310000023204D47F823005A0903F1C00703F09A
:104320001F0304FA03F3920055F8274002F160429C
:1043300002F5614266F3104445F82740C2F8803127
:1043400013600023D1E90541134A046181610260D1
:1043500043611846F0BD502E06BF654643F050033A
:104360003343B3E7C2F11302064C9340DB430B4ADD
:10437000246991E785F0020543EA0513DBB235466F
:10438000A4E700BF004008400C400840241900206A
:104390008019002000600040544741001040084050
:1043A000F0B585B0EFF30383103B214A5BB203F114
:1043B000C00152F821001F4C6FF3104042F8210059
:1043C00054F82350D5E901120878137A0128DBB29A
:1043D0000CD1F427EC6803F0F00317721372097C18
:1043E000154E601E80B246F8214010802F69B7B18B
:1043F0006C6901AECCB194E8070086E807009B0623
:1044000044BF00232371AB6920462360B8476B6922
:104410001BB196E8070083E80700AA68137ADBB2AD
:1044200003F00F03137205B0F0BD3446E7E700BF99
:10443000006000408019002024190020064B074925
:1044400093F826001A6A51F82030C2F30262044938
:10445000D3400B60704700BF00E00140680A0020B5
:104460000C1B00204AF2035001233649364AF0B5AE
:10447000A1F8FE03A2F80431B2F804319BB2002B7C
:10448000FAD101244FF400454FF0090C2F48DFF812
:10449000D8E02F4EC0F804E0DFF8D0E02949C0F89A
:1044A0000CE02C4FA2F800412B4AB46034608560C8
:1044B00005614261076091F826200C6A50F82220BD
:1044C000264DC4F30264E2402A6081F8133481F877
:1044D000A2C091F880241AB181F8813481F8803427
:1044E000002243F20213174981F832200B8591F81C
:1044F0003C301A07FBD50023124A81F82A3092F883
:104500003C309B06FBD5012405210F4BF12683F897
:104510001C41134B82F82610136292F82630146A5D
:1045200050F82310C4F30260C14000242960F02039
:104530004FF425410B4B1E731C721873A2F8FE1327
:10454000F0BD00BF00E0014000C00140680A00204B
:1045500000700040002D310100C2EB0B0C1B00204D
:10456000211202210020004000127A0000366E0164
:10457000704700BFA0F101000028FBD1704700BFC9
:1045800010B54FF47A72164C164B24684FF0000E9B
:10459000B3FBF4FC4FF0FF3300FB01F1A1FB02047D
:1045A00083427EEB040407D3B0FBFCF0800880B1AB
:1045B000BDE81040FFF7DEBF4FEA8C0CB1FBFCF109
:1045C000A1FB02128B427EEB020203D308460028B5
:1045D000EED110BD1846BDE81040FFF7CBBF00BFBD
:1045E0000C1B002000CA9A3B0246024B002043F8F5
:1045F000221070473C19002070B500240A4B0B4E66
:10460000B3F84051ADB225FA04F3DB07E0B203D5AD
:1046100056F8243003B198470134102CF3D1024BE3
:10462000A3F8305170BD00BF006000403C1900206D
:1046300030B56FF0FF0585B0032000F079F84FF03A
:10464000FF311F4C1F482246856400230125CDE918
:104650000111039104F1C00E32F8020F590960B143
:1046600004A800EB810151F80C0C03F01F0C05FAB3
:104670000CFC20EA0C0041F80C0C724503F101031C
:10468000EAD10199104B0F4A03201167C3F8801239
:1046900002995167C3F8841203999167C3F888128D
:1046A00000F016F80023094803F1C00234F8021F95
:1046B0000133602B40F82210F6D105B030BD00BFA9
:1046C0003A6000000080004000E100E0006000402F
:1046D000EFF31081012383F31088124B33F810207D
:1046E00092B22AB133F81020013A92B223F8102086
:1046F00033F810309BB293B90B4A10B4B2F8FE33C2
:104700000A4C9BB234F8100043F4254323EA00031B
:10471000A2F8FE3381F310885DF8044B704781F3F3
:1047200010887047001B002000E001402461000059
:1047300030B4EFF31081012383F310880E4A32F86E
:1047400010309BB26BB90D4C0D4DB4F8FE3335F8FB
:1047500010C09BB243EA0C0343F425439BB2A4F878
:10476000FE3332F8103001339BB222F8103081F35F
:10477000108830BC704700BF001B002000E00140E3
:10478000246100000D4908B50A6803464AB10333A5
:104790000B4823F003031344834206D810460B60F2
:1047A00008BD084802460860F1E700F04DFA0C2306
:1047B0004FF0FF320360104608BD00BF081B002009
:1047C000201F0020201B0020BFF34F8F0549064B00
:1047D000CA6802F4E0621343CB60BFF34F8F00BF9F
:1047E000FDE700BF00ED00E00400FA0508B500F0A9
:1047F00003F8FEF725F9FEE74FF47001234B244A36
:1048000070B50020C3F888109A60FDF727FDFFF708
:1048100029FE0120FDF722FD1E4B83F30A881E4866
:104820001E4A0021121A00F032FA1D481D4A1E4984
:10483000121A00F01FFA1D4D1D4B5B1B002B07DDEC
:1048400000249E1055F8043B01349847A642F9DC39
:10485000FFF7F4FD0320FFF76BFF00234FF6FF7017
:10486000144903F108020133092B21F81200F8D191
:104870000320FFF72DFF0220FDF7F0FCFFF7D8FE25
:10488000BDE870400020FFF773BE00BF00ED00E000
:1048900000000000201F0020800A0020201B0020B4
:1048A00000000020680A0020CC610000600A00209F
:1048B000640A0020000D08407BB972B90029BEBF10
:1048C00000204FF0004106E008BF00281CBF6FF039
:1048D00000414FF0FF3000F0B5B9ADF1080C6DE9C3
:1048E00004CE002909DB002B1ADB00F035F8DDF8D7
:1048F00004E0DDE9022304B07047404261EB41016E
:10490000002B1BDB00F028F8DDF804E0DDE90223D2
:1049100004B0404261EB4101524263EB43037047F4
:10492000524263EB430300F017F8DDF804E0DDE9E1
:10493000022304B0404261EB41017047524263EBF5
:10494000430300F009F8DDF804E0DDE9022304B0D8
:10495000524263EB430370472DE9F04F099D044633
:104960000F46002B48D18A42944661D9B2FA82F3AD
:1049700043B1C3F120019F4002FA03FC9C4020FA9E
:1049800001F10F434FEA1C411FFA8CFE220CB7FBCA
:10499000F1F601FB167706FB0EF042EA0742904261
:1049A00008D91CEB020206F1FF3702D2904200F256
:1049B00037813E46121AA4B2B2FBF1F001FB10227D
:1049C00000FB0EFE44EA0244A64508D91CEB040491
:1049D00000F1FF3202D2A64500F21C81104640EAE7
:1049E0000640A4EB0E0400261DB1DC400023C5E9FF
:1049F00000433146BDE8F08F8B4209D9002D00F00D
:104A0000FD800026C5E9000130463146BDE8F08F43
:104A1000B3FA83F6002E4BD18B42C0F0F280824273
:104A200040F2EF803046002DE3D0C5E90047E0E7D3
:104A300002B9FFDEB2FA82F3002B40F09D80891AA2
:104A40004FEA124E97B20126200CB1FBFEF20EFB8C
:104A5000121140EA014107FB02F088420FD91CEB1A
:104A6000010102F1FF382CBF4FF001094FF000099E
:104A7000884203D9B9F1000F00F0CF804246091AED
:104A8000A4B2B1FBFEF00EFB101100FB07F744EAE5
:104A90000144A74208D91CEB040400F1FF3102D203
:104AA000A74200F2B4800846E41B40EA02409BE7BC
:104AB000C6F12007B34001FA06F422FA07FCF940D8
:104AC000B2404CEA030C20FA07F34FEA1C491C439E
:104AD0001FFA8CFE00FA06F3200CB1FBF9F809FB73
:104AE000181140EA014108FB0EF088420FD91CEB77
:104AF000010108F1FF3A2CBF4FF0010B4FF0000B02
:104B0000884203D9BBF1000F00F08D80D046091A0E
:104B1000A4B2B1FBF9F009FB101100FB0EFE44EA50
:104B200001418E4507D91CEB010100F1FF3401D290
:104B30008E457FD8204640EA0840A1EB0E01A0FB3D
:104B4000029841454C46C64602D306D14B4504D295
:104B50000138B9EB020468EB0C0E002D70D01A1B63
:104B600061EB0E0122FA06F301FA07F7F140002685
:104B70001F43C5E900713CE702FA03FCC3F12000C2
:104B800001FA03F221FA00F64FEA1C4E24FA00F172
:104B90001FFA8CF79C401143B6FBFEF00A0C0EFB8B
:104BA000106642EA064200FB07F696420ED91CEB5D
:104BB000020200F1FF382CBF4FF001094FF000094D
:104BC000964202D9B9F1000F31D04046921B89B20A
:104BD000B2FBFEF60EFB162241EA024106FB07F28B
:104BE0008A4207D91CEB010106F1FF3801D28A4243
:104BF00023D84646891A46EA004625E72E46284627
:104C0000F7E6841A61EB030301201F460BE76444B7
:104C1000023849E764440238E1E6023A61442EE78B
:104C2000023E6244C6E6A8F1020861446FE702381A
:104C30006244CBE7023861447DE7023E6144D9E734
:104C40002E46D6E6704700BF014B1868704700BF7C
:104C5000FC0900200139024410B5904201D1002026
:104C600005E0037811F8014FA34201D0181B10BDD5
:104C70000130F2E70A44431E914200D1704710B55B
:104C800011F8014B914203F8014FF9D110BD0244D4
:104C90000346934200D1704703F8011BF9E7FFFF79
:104CA0000EB400B59CB06FF000411DAB02900690B1
:104CB000079104910848094953F8042B059102A96A
:104CC0000068019300F09CF8029B00221A701CB04F
:104CD0005DF804EB03B07047FC0900200802FFFFF9
:104CE000024610B5147813460132002CFAD1013B6C
:104CF00011F8012B03F8012F002AF9D110BD03464A
:104D000011F8012B03F8012B002AF9D17047034653
:104D100013F8012B002AFBD1181A013870470A78C2
:104D200070B56AB970BD9A4209D10C46054614F8AF
:104D3000013F002BF6D015F8016F9E42F7D00130ED
:104D40000378002BEFD11846ECE72DE9F0478E6889
:104D500082460C4690469E421F4638D88A8912F4F5
:104D6000906F32D0256801330969A5EB01096569A7
:104D700005EB45054B4405EBD5756D109D4238BFDD
:104D80001D46530531D5294600F064FB064650B94F
:104D90000C234FF0FF30CAF80030A38943F04003E2
:104DA000A381BDE8F0874A462169FFF763FFA38925
:104DB00023F4906343F08003A38126614E44656130
:104DC000A5EB090526603E46A560BE4200D93E46D9
:104DD00032464146206800F0B7FAA36800209B1BCA
:104DE000A360236833442360DBE72A4600F0A6FB78
:104DF00006460028E1D12169504600F0BFFAC7E716
:104E00002DE9F04F98468B899DB007461B060D464D
:104E100014460ED50B6963B9402100F01BFB2860D6
:104E2000286120B90C233B604FF0FF30D1E04023D4
:104E30006B610023CDF80C804FF00109DFF8AC81E5
:104E4000099320238DF8293030238DF82A3023460A
:104E50009A4613F8012B0AB1252AF9D1BAEB040BB3
:104E60000BD05B46224629463846FFF76EFF0130DD
:104E700000F0AA80099A5A4409929AF80030002B4F
:104E800000F0A28000234FF0FF320AF1010A0493E0
:104E900007938DF853301A93CDE905235446052224
:104EA000524814F8011B00F041FA049AD8B9D00610
:104EB00044BF20238DF85330110744BF2B238DF8B6
:104EC00053309AF800302A2B15D0079A5446002008
:104ED0004FF00A0C214611F8013B303B092B4ED90B
:104EE000B0B1079214E0A0EB0803A24609FA03F35D
:104EF00013430493D2E7039B191D1B68002B0391F6
:104F0000BBBF5B4242F0020207930793B8BF049213
:104F100023782E2B0CD163782A2B35D1039B0234B6
:104F20001A1D1B68002B0392B8BF4FF0FF33059387
:104F3000DFF8C8A003222178504600F0F7F940B10D
:104F40004023A0EB0A00013403FA00F0049B034362
:104F5000049314F8011B062225488DF8281000F050
:104F6000E5F9002838D0234B1BBB039B073323F004
:104F7000070308330393099B3344099367E70CFB4A
:104F800002320C460120A5E7002301344FF00A0C41
:104F900019460593204610F8012B303A092A03D907
:104FA000002BC5D00591C3E70CFB0121044601236A
:104FB000F0E703AB2A4604A9384600930E4B00E005
:104FC00000BF421C0646D6D1AB895B063FF52CAF2D
:104FD00009981DB0BDE8F08F03AB2A4604A93846F6
:104FE0000093054B00F07CF8EBE700BF2C6100005C
:104FF00036610000000000004B4D000032610000EF
:105000002DE9F047164699468A6807460B690C4613
:10501000DDF820809342B8BF1346336091F84320F7
:105020000AB1013333602368990642BF3368023303
:105030003360256815F0060506D104F1190AE36806
:1050400032689B1AAB4229DC94F84320131E226875
:1050500018BF012392062ED404F143024946384674
:10506000C047013021D023681A3454F80E5C03F095
:10507000060332680026042B54F8123C08BFAD1A10
:1050800054F80A2C14BF002525EAE5759342C4BFE5
:105090009B1AED18B5421AD1002008E001235246B0
:1050A00049463846C047013003D14FF0FF30BDE8D4
:1050B000F0870135C3E7E1185A1C3020023322443F
:1050C00081F8430094F8451082F84310C4E70123A7
:1050D000224649463846C0470130E6D00136D9E776
:1050E0002DE9FF470F7E914680460C46782F9A4661
:1050F0000C9D01F1430207D8622F0AD8002F00F05F
:10510000D880582F00F0A38004F1420584F8427043
:105110003AE0A7F16303152BF6D801A151F823F06B
:10512000795100008D510000095100000951000023
:1051300009510000095100008D5100000951000083
:105140000951000009510000095100009952000066
:10515000BD5100007B5200000951000009510000C0
:10516000BB52000009510000BD5100000951000070
:1051700009510000835200002B681A1D1B682A6029
:1051800004F1420584F842300123A3E02068296835
:10519000060601F104030AD50E682B60002E03DA1F
:1051A0002D23764284F843305E480A2319E00E68C6
:1051B00010F0400F2B6018BF36B2EFE72B68206865
:1051C000191D2960010601D51E6802E04606FBD5BF
:1051D0001E886F2F53480CBF08230A23002184F830
:1051E00043106568002DA560A2BF216821F004016D
:1051F00021600EB9002D4DD01546B6FBF3F103FB2F
:105200001167C75D05F8017D37460E46BB42F4D9EC
:10521000082B0BD12368DE0708D523696168994202
:10522000DEBF302305F8013C05F1FF35521B22613A
:105230004B4603AA21464046CDF800A0FFF7E0FE0A
:1052400001304CD14FF0FF3004B0BDE8F087354855
:1052500081F845702968236851F8046B29601D06A0
:1052600014D5DF0744BF43F0200323601EB9236831
:1052700023F0200323601023B0E7236843F02003CA
:1052800023607823284884F84530E3E7590648BF6F
:10529000B6B2E6E71546BBE72B682668181D6169BC
:1052A000286035061B6801D5196002E07006FBD541
:1052B0001980002315462361BAE72B6800211A1DC7
:1052C0002A601D686268284600F030F808B1401B6B
:1052D000606063682361002384F84330A8E7236992
:1052E0002A4649464046D0470130ABD023689B0749
:1052F00013D4E068039B9842B8BF1846A4E7012383
:10530000324649464046D04701309BD00135E368DC
:1053100003995B1AAB42F2DCEBE7002504F11906B6
:10532000F5E700BF3D6100004E610000C9B20244D4
:1053300010B59042034601D1002303E01C780130F0
:105340008C42F6D1184610BD884210B501EB02041C
:1053500002D98442234607D8431EA14208D011F83F
:10536000012B03F8012FF8E7024401468A4200D1DD
:1053700010BD13F8014D02F8014DF7E737B50029CC
:1053800043D051F8043C0C1F0190002BB8BFE41827
:1053900000F014F91E4A0198136833B96360146071
:1053A00003B0BDE8304000F00FB9A34208D925682A
:1053B00061198B4201BF19685B6849192160EDE7EB
:1053C0001A465B680BB1A342FAD911685518A54279
:1053D0000BD12468214454181160A342E0D11C6809
:1053E0005B68214453601160DAE702D90C23036043
:1053F000D6E7256861198B4202BF19685B684919B5
:10540000636008BF21605460CAE703B030BD00BFCD
:10541000101B002070B50E4E0C460546316811B9C0
:1054200000F0BCF830602146284600F0B7F8431C75
:105430000AD0C41C24F00304A04207D0211A284635
:1054400000F0ACF8013001D14FF0FF34204670BDC0
:10545000141B00202DE9F041CD1C074625F0030563
:1054600008350C2D38BF0C25002D01DBA94205D9CC
:105470000C2300263B603046BDE8F0812E4E00F044
:105480009DF833681C4634BB29463846FFF7C2FFF7
:10549000431C04464DD134682646002E40D1236873
:1054A0003146384604EB030800F078F880453AD1DD
:1054B0002168033538466D1A25F0030508350C2D93
:1054C00038BF0C252946FFF7A5FF01302BD02368F4
:1054D0002B4423600EE02268521B1ED40B2A16D9DF
:1054E0006119A342256018BF5960636808BF316025
:1054F00062514B6004F10B06384600F065F8231D3D
:1055000026F00706F21AB6D09B1BA350B3E76268D9
:10551000A3420CBF32605A60ECE723466468B2E7EE
:1055200034467668B9E70C2338463B6000F04CF807
:10553000A1E72560DEE700BF101B00202DE9F04148
:10554000804614460E4621B91146BDE8F041FFF7EA
:1055500081BF2AB92546FFF711FF2846BDE8F08133
:1055600000F038F88442074602D8B4EB500F12D846
:1055700021464046FFF76EFF05460028EDD0BC42AD
:105580002246314628BF3A46FFF774FB3146404673
:10559000FFF7F4FEE1E73546DFE7FFFF38B500230C
:1055A000054D044608462B60FFF7ECF8431C02D17A
:1055B0002B6803B1236038BD181B0020014800F0A0
:1055C00011B800BF1C1B0020014800F00CB800BF40
:1055D0001C1B002051F8043C181F002BBCBF0B58AB
:1055E000C0187047704770474275696C74207769BE
:1055F00074682052656E6573617320416476616ED4
:1056000063656420466C657869626C6520536F66DB
:105610007477617265205061636B616765207665A0
:105620007273696F6E20332E332E3000332E332E7B
:105630003000000000000303F8B500BFF8BC08BC50
:105640009E467047F8B500BFF8BC08BC9E46704740
:1056500001B40248844601BC604700BF010000203D
:1056600001B40248844601BC604700BF89000020A5
:1056700001B40248844601BC604700BFB105002068
:1056800001B40248844601BC604700BFE504002025
:1056900001B40248844601BC604700BF15030020E6
:1056A0005465726D696E616C00FFFFFF00000000C1
:1056B00000005454522052454747455300FFFFFF16
:1056C0003031323334353637383941424344454638
:1056D00073656E6420746F2073657276657200FF67
:1056E00073656E6420746F20736572766572200036
:1056F0000D0A457261736520415049206661696CED
:1057000065642C205265737461727420746865201E
:105710004170706C69636174696F6E005B455252D1
:105720005D20496E2046756E6374696F6E3A202560
:105730007328292C202573000D0A4572617365209A
:105740007375636365737366756C00000D0A426C54
:10575000616E6B436865636B2041504920666169E7
:105760006C65642C20526573746172742074686572
:10577000204170706C69636174696F6E0000000095
:105780000D0A426C616E6B436865636B2041504942
:10579000205375636365737366756C000D0A20464C
:1057A0004C41534820697320626C616E6B2000008D
:1057B0000D0A20466C617368206973206E6F742037
:1057C000426C616E6B2C206E6F7420746F20777248
:1057D0006974652074686520646174612E20526567
:1057E000737461727420746865206170706C696391
:1057F0006174696F6E0000000D0A5772697465204C
:10580000415049206661696C65642C20526573744F
:1058100061727420746865204170706C6963617492
:10582000696F6E000D0A57726974696E6720666C45
:1058300061736820646174612069732073756363A8
:1058400065737366756C0D0A000000000D0A5265E1
:10585000616420616E6420577269746520627566A8
:105860006665722069732076657269666965642071
:10587000616E64207375636365737366756C000095
:105880000D0A526561642044617461203A200D0A5A
:1058900000000000257820005265616420616E647C
:1058A0002057726974652062756666657220697337
:1058B00020766572696669656420616E64206E6F2A
:1058C00074207375636365737366756C00FFFFFF07
:1058D0000D0A2042474F2068617320656E61626C3B
:1058E000656400000D0A20426C616E6B436865635D
:1058F0006B206973207375636365737366756C00E1
:105900000D0A20426C616E6B436865636B2069739E
:10591000206E6F7420626C616E6B2C6E6F742074DD
:105920006F207772697465207468652064617461A2
:105930002E205265737461727420746865206170E2
:10594000706C69636174696F6E0000000A0D466CCB
:10595000617368206973206E6F7420626C616E6B76
:105960002C206E6F7420746F2077726974652074B8
:10597000686520646174612E20526573746172746D
:1059800020746865206170706C69636174696F6E02
:105990000A0000000D0A466C61736820697320627A
:1059A0006C616E6B0A00FFFF646562756747572084
:1059B00063617264207761732075706772616465DA
:1059C000640D0A00626C616E6B636865636B5F6592
:1059D00076656E745F666C616700FFFF666C61736D
:1059E000685F68705F646174615F666C6173685F53
:1059F0006F7065726174696F6E7300FF49503A0091
:105A00000D0A504F52543A00202020202020202000
:105A100020205374617274204D6F64656D00FFFF28
:105A20002C322C002C332C005468697320697320AD
:105A300054686520706C61636520576520666169F4
:105A40006C65643A00FFFFFF646562756747572025
:105A50006E6F742076616C696420736D730D0A003B
:105A60002B434D475200000064656275674757201D
:105A7000636F6E6E656374696F6E207374617465B5
:105A80002053455420434F4E4649470D0A0000001D
:105A90006465627567475720636F6E6E65637469EE
:105AA0006F6E2073746174652053455420534D53B9
:105AB00020434F4E4649470D0A0000006465627559
:105AC00067475720636F6E6E656374696F6E2073EE
:105AD000746174652073696D2072656164790D0A63
:105AE000000000006465627567475720636F6E6E43
:105AF000656374696F6E207374617465204D4F44E3
:105B0000454D2050524F56494445520D0A00000061
:105B10006465627567475720636F6E6E656374696D
:105B20006F6E207374617465204D4F44454D5F4D19
:105B300041474E45545F524541445F534D530D0A12
:105B4000000000006465627567475720636F6E6EE2
:105B5000656374696F6E207374617465204D4F4482
:105B6000454D20414354495641544520434F4E54DE
:105B70004558542049440D0A0000000064656275D0
:105B800067475720636F6E6E656374696F6E20732D
:105B900074617465204D4F44454D2041435449562E
:105BA00041544520434F4E544558542049442053B6
:105BB00045540D0A00000000646562756747572070
:105BC000636F6E6E656374696F6E20737461746564
:105BD000204D4F44454D2051494F50454E0D0A0030
:105BE0006465627567475720636F6E6E656374699D
:105BF0006F6E207374617465204D4F444520514988
:105C00004F50454E0D0A0000646562756747572086
:105C1000636F6E6E656374696F6E20737461746513
:105C200020434F4E4E4543540D0A00006465627593
:105C30006747572044414349564154452041474115
:105C4000494E0D0A000000006465627567475720E1
:105C5000636F6E6E656374696F6E207374617465D3
:105C600020444154410D0A0064656275674757201E
:105C70006E6F742070726F706572206D65737361E2
:105C800067652072780D0A000D0A41542644310DD3
:105C90000A00FFFF0D0A415445300D0A00FFFFFFC7
:105CA0002C302C302C302C302C302C300D0A00FFB6
:105CB00041542B434744434F4E543D312C49502CC3
:105CC00000FFFFFF0D0A41542B43475245473F0D4C
:105CD0000A00FFFF0D0A2B43475245473A20302C5C
:105CE000310D0A000D0A41542B434D47443D312CE0
:105CF000340D0A000D0A41542B434D474C3D52458B
:105D00004320554E524541440D0A00FF2B2B2B1AC0
:105D10000D0A4552524F520D0A00FFFF0D0A415421
:105D20002B4346554E3D312C310D0A000D0A4E4F86
:105D300020434152524945520D0A00FF0D0A4F4B74
:105D40000D0A00FF0D0A2B51494143543A20312CD2
:105D5000312C31000D0A41542B51494143543F0D20
:105D60000A00FFFF0D0A41542B51494143543D3174
:105D70000D0A00FF0D0A41542B5149434C4F534526
:105D80003D310D0A00FFFFFF2C302C320D0A00FFC1
:105D900041542B51494F50454E3D312C302C5443EA
:105DA000502C00FF0D0A434F4E4E4543540D0A0040
:105DB0000D0A41542B4350494E3F0D0A00FFFFFF8F
:105DC000524541445900FFFF0D0A41542B435343B0
:105DD000533D47534D0D0A000D0A41542B434E4D80
:105DE000493D20322C312C302C302C300D0A00FF54
:105DF0000D0A41542B434D47463D310D0A00FFFF2C
:105E00002B47534D533A00FF0D00FFFF0D0A41543D
:105E10002B434D47533D00FF2B3937323534363253
:105E2000363238313600FFFF696E7465726E657404
:105E300000000000323333380000000033312E31CF
:105E400035342E382E32343300FFFFFF646562751F
:105E500067475720446562756720506F72742076DB
:105E6000657273696F6E2025642E25303264207050
:105E70004F574552434F4D2047572025640D0A0088
:105E80000100000011010101FF0C03004D2800007A
:105E900000000000000000000300000003040C05E7
:105EA0000C060C070000000000000000892800001C
:105EB00000000000B85E000000010000E4090020BE
:105EC0000F00FFFF000000000000000002080C09A6
:105ED0000C0A0C0B0000000000000000C9280000A4
:105EE00000000000E85E000000010000E80900205A
:105EF0000F00FFFF000000000000000024F400007D
:105F000003000000127A000000030D000D290000BC
:105F100000000000185F000000000001000000FF0A
